:4000000080673030303030307e3030307e3030307e3030307e3030307e3030307e3030307e3030307e3030307d03557e7d03567e7e3030307e3030307e3030307e3030306a
:400040007e3030307e3030307e3030307e3030307e3030307e3030307e3030307e3030307e3030307e303030711062fa0062e38770ef50202850402850602862e33841fe08
:40008000fb50804e62e33855f80055f900711062e00270ef62e338627105627505627905627d0562d10750004e62d30762d00062d50062d40071c07c034262d00050015777
:4000c000660828532718750900284b5127800475090062e300082860d574a04b1875090008285327187509000828a01c53261875090008283f274727ffb0065dd57460d5ff
:40010000187a26bfeb8fc9187509000828532650003f274727ffb0085dd57460d550007a26bfef188faa18711070ef62e000711062e00243e78070ef62e2007c08848fff3f
:4001400050107f30303030303030303030303030527820646174613a0053656e74005478206461746100096770ef62602862660062630562650062e60062e70062d6006215
:40018000b00462b10062b20062b33362b43362b51062b62062b85562b90062ba1062bb3362bc3362bd0062be0062c00062c10062c22062c33362c43362c50062c60062c82b
:4001c0005562c90062ca3062cb3362cc3362cd0062ce00626c00626d00626e00626f00622f00622d00622e00622b00622900622a007110626100626900626000626200627a
:40020000673362683362630062660062d10062d30062d00062d20062e10062e20062df9b62de0062dd0062e700622c05622dd1622e4562280d622901622a4770ef70ef62c3
:400240000000711062008262017d70ef62035d6202a2711062020062030070ef62010062040071106204006205ff70ef6207ff620600711062060062070070ef62050062aa
:400280000800711062087f62098070ef620b80620a007110620a00620b0070ef620900620c007110620c00620d0070ef620f00620e007110620e00620f0070ef620d006267
:4002c0001000711062100062110070ef621300621200711062120062130070ef621100621400711062140062150070ef621700621600711062160062170070ef6215006226
:400300001800711062180062190070ef621b00621a007110621a00621b0070ef621900621c007110621c00621d0070ef621f00621e007110621e00621f0070ef621d007057
:40034000ef7f55020055037f5504807c034f7f7c016870ef7f7e08105dd30858015d2f082108b00418805e1821e0a0122c00492e002120a050412ffe432f0180485d2e4750
:400380000001b041390db0142e000162d300703f7180560500703f7100802a3920c02662d3003c011fc011703f7180560500703f71002e0010800e703f71805405703f7177
:4003c00000755a011860d320187e43e10443e1087f41e1fb41e1f77f71102101a00743281070ef7f4128ef70ef7f2901602b602f912a7f412bfe412ffe7f60297f5d2b7fe7
:400400005d2e7f5d2f7f210171103901a0064128ef800443281070ef7f082101a00643e108800441e1f7182102a00643e104800441e1fb7f3031323334353637383941429d
:40044000434445460867676767210fffe7900f18210fffe090087f4b9fea5b9fe77f492b10affc60297f492f08affc5d2e7f5d2f082108b00418800b5d2e4b1821a0b003bd
:400480004b7f50007f5d2f21e8082108b0071829014b80071821e04b5d2e7f70bf60d35200a0069fb9758ff8703f71c07f70bf62d3074f52fba01a7bfb52fc59fd60d35237
:4004c00000492b10affc60294f62d30777fd8fe4703f71c07f4f3dfa00b0063dfb00a01d1052fc59fd28492b10affc60292007fd010ffc0017fb011ffa008fdb703f71c008
:400500007f081028a00b9f56201875dff5748ff238fe7f500d9f47500a9f437f62d00055050062d00055010026000062d0005528007f62d000510021017f62d00051002103
:40054000f026000f7f62d00051017f70bf62d000500502285c62d3005200b0041080333920b01175762852003c281fbff310560000801f107576283c281faff35200a01295
:400580003920bff156000076283c281fb00455281f20103d0000b00a2057005b703f71c07f205000703f71c07f62d000500502285c50007f081028b00420187f90442018b1
:4005c00075dff2748fef303132333435363738394142434445460867676767210fffe7902118210fffe0901a7f4b9fea5b9fe77f70bf60d35200a0069008758ff8703f7124
:40060000c07f90650867676767210f903b18210f40404090337f90510867676767210f900918210f40404090017f0862d0002602805102600818210f29102a026008530230
:4006400040218f530260087f0862d0002602802e02205102600818210f29302a02600853024021af530260087f0862d000260280510260082603f051037110600870ef2e0b
:40068000024051026008401057ff2e02505102600840405d08082602c0510260084040402e02505102600840402602c051026008182108a00479bfd3202e037f5103711019
:4006c000600870ef187f62d0002603802e037f2604805103711060085104600970ef50fa906750fa906350039f405052905b50039f3890639061905f50039f2e505a904930
:4007000050029f26505a904150089f0a505a903950019f02505a903150069efa500e9ef6502c9ef250089eee500c9eea50039ee6505a90157f80c094d4210310fff74f03d9
:40074000ff209ed2703f71c07f900c78bffc7f08193a7c010101010871105de070ef21073905d006ffe978bffe187f4f1052fd59fc703f71c09fc2203dfa00b0055000802d
:40078000113dfa06d00752fa15fa8006500617fa059e6f7bfbbfe2703f71c07f4f52fd210308ff9103fc9e6e3dfa00b005502080133dfa09d00952fa7856fa00800617fa2c
:4007c0000850079e3d18787bfbbfd7703f71c07f4f080850409e3f56000156010852003b01d0055000800350ff9e177b01bfef77003d0009bfe51818500c9e1a703f71c059
:400800007f0010181c1e1f1f001008040201004f3803540250409dfe56000056010852003d0200b005ffda8003ffdd9dd57b01bfee77003d0007bfe438fd500c9dd8703f8e
:4008400071c07f104f3804560300560200801d56010056000077010f000052011178520031801980cff077030f0200520313fc52fb318062d0005325520231801a25cfd0fa
:4008800038fc207f104f3805560217107c06c650007c03ea7c051c2080c7107c03fd2062d00054001052027c03fa20107c03fd2062d000540010500057007c073950010818
:4008c000505e5c187c05b42062d0005200735327262720bfd710500057007c073950010850595c187c05b4570950007c0739201052027c05d62050070850d0089f4538fee7
:4009000077023d02ffb004560210107c051c2010570050017c073950010850505c187c05b47c04032062d000540162d0005201735327262708bfd9107c04002062d0005442
:400940000310570950017c0739201052037c05d62050070850d0089eea38fe107c051c208f3938fb208fffff003030303030303030303030303030303030303030303030f1
:400980003030303030303030303030303030303030303030303030303030303030303030303030303030303030303030303030303030303030303030303030303030303037
:4009c00030303030303030303030303030303030303030303030303030303030303030303030303030303030303030303030303030303030303030303030303030303030f7
:400a000030303030303030303030303030303030303030303030303030303030303030303030303030303030303030303030303030303030303030303030303030303030b6
:400a40003030303030303030303030303030303030303030303030303030303030303030303030303030303030303030303030303030303030303030303030303030303076
:020000040010ea
:020000040020da
:02000000476f48
:00000001ff
